{
  "contractName": "Offers",
  "abi": [
    {
      "constant": true,
      "inputs": [],
      "name": "cfoAddress",
      "outputs": [
        {
          "name": "",
          "type": "address"
        }
      ],
      "payable": false,
      "stateMutability": "view",
      "type": "function"
    },
    {
      "constant": true,
      "inputs": [],
      "name": "frozen",
      "outputs": [
        {
          "name": "",
          "type": "bool"
        }
      ],
      "payable": false,
      "stateMutability": "view",
      "type": "function"
    },
    {
      "constant": true,
      "inputs": [],
      "name": "ceoAddress",
      "outputs": [
        {
          "name": "",
          "type": "address"
        }
      ],
      "payable": false,
      "stateMutability": "view",
      "type": "function"
    },
    {
      "constant": true,
      "inputs": [],
      "name": "globalDuration",
      "outputs": [
        {
          "name": "",
          "type": "uint256"
        }
      ],
      "payable": false,
      "stateMutability": "view",
      "type": "function"
    },
    {
      "constant": false,
      "inputs": [
        {
          "name": "_newLostAndFound",
          "type": "address"
        }
      ],
      "name": "setLostAndFound",
      "outputs": [],
      "payable": false,
      "stateMutability": "nonpayable",
      "type": "function"
    },
    {
      "constant": false,
      "inputs": [
        {
          "name": "_newCEO",
          "type": "address"
        }
      ],
      "name": "setCEO",
      "outputs": [],
      "payable": false,
      "stateMutability": "nonpayable",
      "type": "function"
    },
    {
      "constant": false,
      "inputs": [
        {
          "name": "_newCOO",
          "type": "address"
        }
      ],
      "name": "setCOO",
      "outputs": [],
      "payable": false,
      "stateMutability": "nonpayable",
      "type": "function"
    },
    {
      "constant": false,
      "inputs": [
        {
          "name": "_newOfferCut",
          "type": "uint256"
        }
      ],
      "name": "setOfferCut",
      "outputs": [],
      "payable": false,
      "stateMutability": "nonpayable",
      "type": "function"
    },
    {
      "constant": true,
      "inputs": [],
      "name": "lostAndFoundAddress",
      "outputs": [
        {
          "name": "",
          "type": "address"
        }
      ],
      "payable": false,
      "stateMutability": "view",
      "type": "function"
    },
    {
      "constant": false,
      "inputs": [
        {
          "name": "_newMinimumPriceIncrement",
          "type": "uint256"
        }
      ],
      "name": "setMinimumPriceIncrement",
      "outputs": [],
      "payable": false,
      "stateMutability": "nonpayable",
      "type": "function"
    },
    {
      "constant": false,
      "inputs": [],
      "name": "withdrawTotalLostAndFoundBalance",
      "outputs": [],
      "payable": false,
      "stateMutability": "nonpayable",
      "type": "function"
    },
    {
      "constant": false,
      "inputs": [
        {
          "name": "_newMinTotal",
          "type": "uint256"
        }
      ],
      "name": "setMinimumTotalValue",
      "outputs": [],
      "payable": false,
      "stateMutability": "nonpayable",
      "type": "function"
    },
    {
      "constant": false,
      "inputs": [
        {
          "name": "_newCFO",
          "type": "address"
        }
      ],
      "name": "setCFO",
      "outputs": [],
      "payable": false,
      "stateMutability": "nonpayable",
      "type": "function"
    },
    {
      "constant": true,
      "inputs": [],
      "name": "totalCFOEarnings",
      "outputs": [
        {
          "name": "",
          "type": "uint256"
        }
      ],
      "payable": false,
      "stateMutability": "view",
      "type": "function"
    },
    {
      "constant": false,
      "inputs": [],
      "name": "freeze",
      "outputs": [],
      "payable": false,
      "stateMutability": "nonpayable",
      "type": "function"
    },
    {
      "constant": true,
      "inputs": [],
      "name": "minimumTotalValue",
      "outputs": [
        {
          "name": "",
          "type": "uint256"
        }
      ],
      "payable": false,
      "stateMutability": "view",
      "type": "function"
    },
    {
      "constant": true,
      "inputs": [],
      "name": "totalLostAndFoundBalance",
      "outputs": [
        {
          "name": "",
          "type": "uint256"
        }
      ],
      "payable": false,
      "stateMutability": "view",
      "type": "function"
    },
    {
      "constant": false,
      "inputs": [
        {
          "name": "_newDuration",
          "type": "uint256"
        }
      ],
      "name": "setGlobalDuration",
      "outputs": [],
      "payable": false,
      "stateMutability": "nonpayable",
      "type": "function"
    },
    {
      "constant": false,
      "inputs": [],
      "name": "withdrawTotalCFOEarnings",
      "outputs": [],
      "payable": false,
      "stateMutability": "nonpayable",
      "type": "function"
    },
    {
      "constant": true,
      "inputs": [],
      "name": "cooAddress",
      "outputs": [
        {
          "name": "",
          "type": "address"
        }
      ],
      "payable": false,
      "stateMutability": "view",
      "type": "function"
    },
    {
      "constant": true,
      "inputs": [],
      "name": "offerCut",
      "outputs": [
        {
          "name": "",
          "type": "uint256"
        }
      ],
      "payable": false,
      "stateMutability": "view",
      "type": "function"
    },
    {
      "constant": false,
      "inputs": [
        {
          "name": "_newUnsuccessfulFee",
          "type": "uint256"
        }
      ],
      "name": "setUnsuccessfulFee",
      "outputs": [],
      "payable": false,
      "stateMutability": "nonpayable",
      "type": "function"
    },
    {
      "constant": true,
      "inputs": [],
      "name": "unsuccessfulFee",
      "outputs": [
        {
          "name": "",
          "type": "uint256"
        }
      ],
      "payable": false,
      "stateMutability": "view",
      "type": "function"
    },
    {
      "constant": true,
      "inputs": [
        {
          "name": "",
          "type": "uint256"
        }
      ],
      "name": "tokenIdToOffer",
      "outputs": [
        {
          "name": "expiresAt",
          "type": "uint64"
        },
        {
          "name": "bidder",
          "type": "address"
        },
        {
          "name": "offerCut",
          "type": "uint16"
        },
        {
          "name": "total",
          "type": "uint128"
        },
        {
          "name": "unsuccessfulFee",
          "type": "uint128"
        }
      ],
      "payable": false,
      "stateMutability": "view",
      "type": "function"
    },
    {
      "constant": true,
      "inputs": [],
      "name": "minimumPriceIncrement",
      "outputs": [
        {
          "name": "",
          "type": "uint256"
        }
      ],
      "payable": false,
      "stateMutability": "view",
      "type": "function"
    },
    {
      "constant": true,
      "inputs": [],
      "name": "nonFungibleContract",
      "outputs": [
        {
          "name": "",
          "type": "address"
        }
      ],
      "payable": false,
      "stateMutability": "view",
      "type": "function"
    },
    {
      "inputs": [
        {
          "name": "_nftAddress",
          "type": "address"
        },
        {
          "name": "_globalDuration",
          "type": "uint256"
        },
        {
          "name": "_minimumTotalValue",
          "type": "uint256"
        },
        {
          "name": "_minimumPriceIncrement",
          "type": "uint256"
        },
        {
          "name": "_unsuccessfulFee",
          "type": "uint256"
        },
        {
          "name": "_offerCut",
          "type": "uint256"
        }
      ],
      "payable": false,
      "stateMutability": "nonpayable",
      "type": "constructor"
    },
    {
      "payable": true,
      "stateMutability": "payable",
      "type": "fallback"
    },
    {
      "anonymous": false,
      "inputs": [
        {
          "indexed": false,
          "name": "tokenId",
          "type": "uint256"
        },
        {
          "indexed": false,
          "name": "bidder",
          "type": "address"
        },
        {
          "indexed": false,
          "name": "expiresAt",
          "type": "uint256"
        },
        {
          "indexed": false,
          "name": "total",
          "type": "uint256"
        },
        {
          "indexed": false,
          "name": "offerPrice",
          "type": "uint256"
        }
      ],
      "name": "OfferCreated",
      "type": "event"
    },
    {
      "anonymous": false,
      "inputs": [
        {
          "indexed": false,
          "name": "tokenId",
          "type": "uint256"
        },
        {
          "indexed": false,
          "name": "bidder",
          "type": "address"
        },
        {
          "indexed": false,
          "name": "bidderReceived",
          "type": "uint256"
        },
        {
          "indexed": false,
          "name": "fee",
          "type": "uint256"
        }
      ],
      "name": "OfferCancelled",
      "type": "event"
    },
    {
      "anonymous": false,
      "inputs": [
        {
          "indexed": false,
          "name": "tokenId",
          "type": "uint256"
        },
        {
          "indexed": false,
          "name": "bidder",
          "type": "address"
        },
        {
          "indexed": false,
          "name": "owner",
          "type": "address"
        },
        {
          "indexed": false,
          "name": "ownerReceived",
          "type": "uint256"
        },
        {
          "indexed": false,
          "name": "fee",
          "type": "uint256"
        }
      ],
      "name": "OfferFulfilled",
      "type": "event"
    },
    {
      "anonymous": false,
      "inputs": [
        {
          "indexed": false,
          "name": "tokenId",
          "type": "uint256"
        },
        {
          "indexed": false,
          "name": "bidder",
          "type": "address"
        },
        {
          "indexed": false,
          "name": "newExpiresAt",
          "type": "uint256"
        },
        {
          "indexed": false,
          "name": "totalRaised",
          "type": "uint256"
        }
      ],
      "name": "OfferUpdated",
      "type": "event"
    },
    {
      "anonymous": false,
      "inputs": [
        {
          "indexed": false,
          "name": "tokenId",
          "type": "uint256"
        },
        {
          "indexed": false,
          "name": "bidder",
          "type": "address"
        },
        {
          "indexed": false,
          "name": "bidderReceived",
          "type": "uint256"
        },
        {
          "indexed": false,
          "name": "fee",
          "type": "uint256"
        }
      ],
      "name": "ExpiredOfferRemoved",
      "type": "event"
    },
    {
      "anonymous": false,
      "inputs": [
        {
          "indexed": false,
          "name": "tokenId",
          "type": "uint256"
        },
        {
          "indexed": false,
          "name": "bidder",
          "type": "address"
        },
        {
          "indexed": false,
          "name": "amount",
          "type": "uint256"
        }
      ],
      "name": "BidderWithdrewFundsWhenFrozen",
      "type": "event"
    },
    {
      "anonymous": false,
      "inputs": [
        {
          "indexed": false,
          "name": "tokenId",
          "type": "uint256"
        },
        {
          "indexed": false,
          "name": "to",
          "type": "address"
        },
        {
          "indexed": false,
          "name": "amount",
          "type": "uint256"
        }
      ],
      "name": "PushFundsFailed",
      "type": "event"
    },
    {
      "anonymous": false,
      "inputs": [
        {
          "indexed": false,
          "name": "value",
          "type": "uint256"
        }
      ],
      "name": "GlobalDurationUpdated",
      "type": "event"
    },
    {
      "anonymous": false,
      "inputs": [
        {
          "indexed": false,
          "name": "value",
          "type": "uint256"
        }
      ],
      "name": "MinimumTotalValueUpdated",
      "type": "event"
    },
    {
      "anonymous": false,
      "inputs": [
        {
          "indexed": false,
          "name": "value",
          "type": "uint256"
        }
      ],
      "name": "MinimumPriceIncrementUpdated",
      "type": "event"
    },
    {
      "anonymous": false,
      "inputs": [
        {
          "indexed": false,
          "name": "value",
          "type": "uint256"
        }
      ],
      "name": "OfferCutUpdated",
      "type": "event"
    },
    {
      "anonymous": false,
      "inputs": [
        {
          "indexed": false,
          "name": "value",
          "type": "uint256"
        }
      ],
      "name": "UnsuccessfulFeeUpdated",
      "type": "event"
    },
    {
      "constant": false,
      "inputs": [
        {
          "name": "_tokenId",
          "type": "uint256"
        }
      ],
      "name": "createOffer",
      "outputs": [],
      "payable": true,
      "stateMutability": "payable",
      "type": "function"
    },
    {
      "constant": false,
      "inputs": [
        {
          "name": "_tokenId",
          "type": "uint256"
        }
      ],
      "name": "cancelOffer",
      "outputs": [],
      "payable": false,
      "stateMutability": "nonpayable",
      "type": "function"
    },
    {
      "constant": false,
      "inputs": [
        {
          "name": "_tokenId",
          "type": "uint256"
        },
        {
          "name": "_minOfferPrice",
          "type": "uint128"
        }
      ],
      "name": "fulfillOffer",
      "outputs": [],
      "payable": false,
      "stateMutability": "nonpayable",
      "type": "function"
    },
    {
      "constant": false,
      "inputs": [
        {
          "name": "_tokenIds",
          "type": "uint256[]"
        }
      ],
      "name": "batchRemoveExpired",
      "outputs": [],
      "payable": false,
      "stateMutability": "nonpayable",
      "type": "function"
    },
    {
      "constant": false,
      "inputs": [
        {
          "name": "_tokenId",
          "type": "uint256"
        }
      ],
      "name": "updateOffer",
      "outputs": [],
      "payable": true,
      "stateMutability": "payable",
      "type": "function"
    },
    {
      "constant": false,
      "inputs": [
        {
          "name": "_tokenId",
          "type": "uint256"
        }
      ],
      "name": "bidderWithdrawFunds",
      "outputs": [],
      "payable": false,
      "stateMutability": "nonpayable",
      "type": "function"
    }
  ],
  "bytecode": "0x60806040526000600660006101000a81548160ff0219169083151502179055503480156200002c57600080fd5b5060405160c080620044c38339810180604052810190808051906020019092919080519060200190929190805190602001909291908051906020019092919080519060200190929190805190602001909291905050506000336000806101000a81548173ffffffffffffffffffffffffffffffffffffffff021916908373ffffffffffffffffffffffffffffffffffffffff1602179055508690508073ffffffffffffffffffffffffffffffffffffffff166301ffc9a7639a20483d7c0100000000000000000000000000000000000000000000000000000000026040518263ffffffff167c010000000000000000000000000000000000000000000000000000000002815260040180827bffffffffffffffffffffffffffffffffffffffffffffffffffffffff19167bffffffffffffffffffffffffffffffffffffffffffffffffffffffff19168152602001915050602060405180830381600087803b1580156200019857600080fd5b505af1158015620001ad573d6000803e3d6000fd5b505050506040513d6020811015620001c457600080fd5b8101908080519060200190929190505050151562000270576040517f08c379a000000000000000000000000000000000000000000000000000000000815260040180806020018281038252602e8152602001807f4e465420436f6e7472616374206e6565647320746f20737570706f727420455281526020017f4337323120496e7465726661636500000000000000000000000000000000000081525060400191505060405180910390fd5b80600d60006101000a81548173ffffffffffffffffffffffffffffffffffffffff021916908373ffffffffffffffffffffffffffffffffffffffff1602179055508560078190555082600a81905550620002d9826200031b640100000000026401000000009004565b620002f384620003c6640100000000026401000000009004565b6200030e858462000471640100000000026401000000009004565b50505050505050620004f8565b6127108111151515620003bc576040517f08c379a00000000000000000000000000000000000000000000000000000000081526004018080602001828103825260228152602001807f696e76616c696420626173697320706f696e747320666f72206f66666572206381526020017f757400000000000000000000000000000000000000000000000000000000000081525060400191505060405180910390fd5b80600b8190555050565b612710811115151562000467576040517f08c379a00000000000000000000000000000000000000000000000000000000081526004018080602001828103825260308152602001807f696e76616c696420626173697320706f696e747320666f72206d696e696d756d81526020017f20707269636520696e6372656d656e740000000000000000000000000000000081525060400191505060405180910390fd5b8060098190555050565b806002028210151515620004ed576040517f08c379a00000000000000000000000000000000000000000000000000000000081526004018080602001828103825260198152602001807f6d696e696d756d2076616c75652073657420746f6f206c6f770000000000000081525060200191505060405180910390fd5b816008819055505050565b613fbb80620005086000396000f300608060405260043610610196576000357c0100000000000000000000000000000000000000000000000000000000900463ffffffff1680630519ce7914610204578063054f7d9c1461025b5780630a0f81681461028a57806314806a32146102e15780631c091a5f1461030c5780631f7474581461034757806327d7874c1461038a5780632ba73c15146103cd5780632d5796ac14610410578063302890e11461043d5780633a3d55a01461049457806345394dad146104c15780634ae772a4146104d85780634e0a3379146105055780634e8dc0031461054857806356d282fc146105915780635ac165af146105b157806362a5af3b146105dc57806369250729146105f35780637ae863851461061e5780638c0ceea514610649578063930add2914610676578063a269993d1461068d578063b047fb50146106ad578063bea12e0014610704578063bff2273e1461072f578063c65b98e71461075c578063d531fe2b14610787578063db34176514610874578063dd1b7a0f1461089f578063e1302e2b146108f6578063ef706adf14610923575b6040517f08c379a000000000000000000000000000000000000000000000000000000000815260040180806020018281038252601d8152602001807f776520646f6e27742061636365707420616e79207061796d656e74732100000081525060200191505060405180910390fd5b34801561021057600080fd5b50610219610950565b604051808273ffffffffffffffffffffffffffffffffffffffff1673ffffffffffffffffffffffffffffffffffffffff16815260200191505060405180910390f35b34801561026757600080fd5b50610270610976565b604051808215151515815260200191505060405180910390f35b34801561029657600080fd5b5061029f610989565b604051808273ffffffffffffffffffffffffffffffffffffffff1673ffffffffffffffffffffffffffffffffffffffff16815260200191505060405180910390f35b3480156102ed57600080fd5b506102f66109ae565b6040518082815260200191505060405180910390f35b34801561031857600080fd5b506103456004803603810190808035906020019082018035906020019190919293919293905050506109b4565b005b34801561035357600080fd5b50610388600480360381019080803573ffffffffffffffffffffffffffffffffffffffff169060200190929190505050610cc6565b005b34801561039657600080fd5b506103cb600480360381019080803573ffffffffffffffffffffffffffffffffffffffff169060200190929190505050610ebf565b005b3480156103d957600080fd5b5061040e600480360381019080803573ffffffffffffffffffffffffffffffffffffffff1690602001909291905050506110b7565b005b34801561041c57600080fd5b5061043b600480360381019080803590602001909291905050506112b0565b005b34801561044957600080fd5b50610452611463565b604051808273ffffffffffffffffffffffffffffffffffffffff1673ffffffffffffffffffffffffffffffffffffffff16815260200191505060405180910390f35b3480156104a057600080fd5b506104bf60048036038101908080359060200190929190505050611489565b005b3480156104cd57600080fd5b506104d661163c565b005b3480156104e457600080fd5b50610503600480360381019080803590602001909291905050506117a2565b005b34801561051157600080fd5b50610546600480360381019080803573ffffffffffffffffffffffffffffffffffffffff169060200190929190505050611958565b005b34801561055457600080fd5b5061058f6004803603810190808035906020019092919080356fffffffffffffffffffffffffffffffff169060200190929190505050611b51565b005b6105af600480360381019080803590602001909291905050506122fb565b005b3480156105bd57600080fd5b506105c661270b565b6040518082815260200191505060405180910390f35b3480156105e857600080fd5b506105f1612711565b005b3480156105ff57600080fd5b5061060861289d565b6040518082815260200191505060405180910390f35b34801561062a57600080fd5b506106336128a3565b6040518082815260200191505060405180910390f35b34801561065557600080fd5b50610674600480360381019080803590602001909291905050506128a9565b005b34801561068257600080fd5b5061068b612a5a565b005b6106ab60048036038101908080359060200190929190505050612bc0565b005b3480156106b957600080fd5b506106c261312f565b604051808273ffffffffffffffffffffffffffffffffffffffff1673ffffffffffffffffffffffffffffffffffffffff16815260200191505060405180910390f35b34801561071057600080fd5b50610719613155565b6040518082815260200191505060405180910390f35b34801561073b57600080fd5b5061075a6004803603810190808035906020019092919050505061315b565b005b34801561076857600080fd5b5061077161330c565b6040518082815260200191505060405180910390f35b34801561079357600080fd5b506107b260048036038101908080359060200190929190505050613312565b604051808667ffffffffffffffff1667ffffffffffffffff1681526020018573ffffffffffffffffffffffffffffffffffffffff1673ffffffffffffffffffffffffffffffffffffffff1681526020018461ffff1661ffff168152602001836fffffffffffffffffffffffffffffffff166fffffffffffffffffffffffffffffffff168152602001826fffffffffffffffffffffffffffffffff166fffffffffffffffffffffffffffffffff1681526020019550505050505060405180910390f35b34801561088057600080fd5b506108896133c2565b6040518082815260200191505060405180910390f35b3480156108ab57600080fd5b506108b46133c8565b604051808273ffffffffffffffffffffffffffffffffffffffff1673ffffffffffffffffffffffffffffffffffffffff16815260200191505060405180910390f35b34801561090257600080fd5b50610921600480360381019080803590602001909291905050506133ee565b005b34801561092f57600080fd5b5061094e600480360381019080803590602001909291905050506137e9565b005b600260009054906101000a900473ffffffffffffffffffffffffffffffffffffffff1681565b600660009054906101000a900460ff1681565b6000809054906101000a900473ffffffffffffffffffffffffffffffffffffffff1681565b60075481565b600080600080600080600080600660009054906101000a900460ff16151515610a45576040517f08c379a000000000000000000000000000000000000000000000000000000000815260040180806020018281038252601f8152602001807f636f6e7472616374206e6565647320746f206e6f742062652066726f7a656e0081525060200191505060405180910390fd5b898990509750600096505b87871015610cba578989888181101515610a6657fe5b905060200201359550600c600087815260200190815260200160002094508460000160009054906101000a900467ffffffffffffffff1667ffffffffffffffff169350610ab284613c9b565b1515610abd57610cad565b610ac684613ca7565b15610ad057610cad565b8460000160089054906101000a900473ffffffffffffffffffffffffffffffffffffffff1692508460010160109054906101000a90046fffffffffffffffffffffffffffffffff166fffffffffffffffffffffffffffffffff169150818560010160009054906101000a90046fffffffffffffffffffffffffffffffff166fffffffffffffffffffffffffffffffff16039050600c6000878152602001908152602001600020600080820160006101000a81549067ffffffffffffffff02191690556000820160086101000a81549073ffffffffffffffffffffffffffffffffffffffff021916905560008201601c6101000a81549061ffff02191690556001820160006101000a8154906fffffffffffffffffffffffffffffffff02191690556001820160106101000a8154906fffffffffffffffffffffffffffffffff0219169055505081600460008282540192505081905550610c31868483613cb3565b7fd876ee5dd9082a3ac4fe7be4799528f1d5f3545cee1516f2821d0f8ecc9d629c86848385604051808581526020018473ffffffffffffffffffffffffffffffffffffffff1673ffffffffffffffffffffffffffffffffffffffff16815260200183815260200182815260200194505050505060405180910390a15b8680600101975050610a50565b50505050505050505050565b6000809054906101000a900473ffffffffffffffffffffffffffffffffffffffff1673ffffffffffffffffffffffffffffffffffffffff163373ffffffffffffffffffffffffffffffffffffffff16141515610db0576040517f08c379a000000000000000000000000000000000000000000000000000000000815260040180806020018281038252602d8152602001807f6f6e6c792043454f20697320616c6c6f77656420746f20706572666f726d207481526020017f686973206f7065726174696f6e0000000000000000000000000000000000000081525060400191505060405180910390fd5b600073ffffffffffffffffffffffffffffffffffffffff168173ffffffffffffffffffffffffffffffffffffffff1614151515610e7b576040517f08c379a000000000000000000000000000000000000000000000000000000000815260040180806020018281038252602d8152602001807f6e6577206c6f737420616e6420666f756e642063616e6e6f742062652074686581526020017f207a65726f2d6163636f756e740000000000000000000000000000000000000081525060400191505060405180910390fd5b80600360006101000a81548173ffffffffffffffffffffffffffffffffffffffff021916908373ffffffffffffffffffffffffffffffffffffffff16021790555050565b6000809054906101000a900473ffffffffffffffffffffffffffffffffffffffff1673ffffffffffffffffffffffffffffffffffffffff163373ffffffffffffffffffffffffffffffffffffffff16141515610fa9576040517f08c379a000000000000000000000000000000000000000000000000000000000815260040180806020018281038252602d8152602001807f6f6e6c792043454f20697320616c6c6f77656420746f20706572666f726d207481526020017f686973206f7065726174696f6e0000000000000000000000000000000000000081525060400191505060405180910390fd5b600073ffffffffffffffffffffffffffffffffffffffff168173ffffffffffffffffffffffffffffffffffffffff1614151515611074576040517f08c379a000000000000000000000000000000000000000000000000000000000815260040180806020018281038252602a8152602001807f6e65772043454f20616464726573732063616e6e6f7420626520746865207a6581526020017f726f2d6163636f756e740000000000000000000000000000000000000000000081525060400191505060405180910390fd5b806000806101000a81548173ffffffffffffffffffffffffffffffffffffffff021916908373ffffffffffffffffffffffffffffffffffffffff16021790555050565b6000809054906101000a900473ffffffffffffffffffffffffffffffffffffffff1673ffffffffffffffffffffffffffffffffffffffff163373ffffffffffffffffffffffffffffffffffffffff161415156111a1576040517f08c379a000000000000000000000000000000000000000000000000000000000815260040180806020018281038252602d8152602001807f6f6e6c792043454f20697320616c6c6f77656420746f20706572666f726d207481526020017f686973206f7065726174696f6e0000000000000000000000000000000000000081525060400191505060405180910390fd5b600073ffffffffffffffffffffffffffffffffffffffff168173ffffffffffffffffffffffffffffffffffffffff161415151561126c576040517f08c379a000000000000000000000000000000000000000000000000000000000815260040180806020018281038252602a8152602001807f6e657720434f4f20616464726573732063616e6e6f7420626520746865207a6581526020017f726f2d6163636f756e740000000000000000000000000000000000000000000081525060400191505060405180910390fd5b80600160006101000a81548173ffffffffffffffffffffffffffffffffffffffff021916908373ffffffffffffffffffffffffffffffffffffffff16021790555050565b600160009054906101000a900473ffffffffffffffffffffffffffffffffffffffff1673ffffffffffffffffffffffffffffffffffffffff163373ffffffffffffffffffffffffffffffffffffffff1614151561139b576040517f08c379a000000000000000000000000000000000000000000000000000000000815260040180806020018281038252602d8152602001807f6f6e6c7920434f4f20697320616c6c6f77656420746f20706572666f726d207481526020017f686973206f7065726174696f6e0000000000000000000000000000000000000081525060400191505060405180910390fd5b600660009054906101000a900460ff16151515611420576040517f08c379a000000000000000000000000000000000000000000000000000000000815260040180806020018281038252601f8152602001807f636f6e7472616374206e6565647320746f206e6f742062652066726f7a656e0081525060200191505060405180910390fd5b61142981613d78565b7f4a13d5076f950a8eb96f30e1f814eecade18fcebc5042f3ce669cea283edaefd816040518082815260200191505060405180910390a150565b600360009054906101000a900473ffffffffffffffffffffffffffffffffffffffff1681565b600160009054906101000a900473ffffffffffffffffffffffffffffffffffffffff1673ffffffffffffffffffffffffffffffffffffffff163373ffffffffffffffffffffffffffffffffffffffff16141515611574576040517f08c379a000000000000000000000000000000000000000000000000000000000815260040180806020018281038252602d8152602001807f6f6e6c7920434f4f20697320616c6c6f77656420746f20706572666f726d207481526020017f686973206f7065726174696f6e0000000000000000000000000000000000000081525060400191505060405180910390fd5b600660009054906101000a900460ff161515156115f9576040517f08c379a000000000000000000000000000000000000000000000000000000000815260040180806020018281038252601f8152602001807f636f6e7472616374206e6565647320746f206e6f742062652066726f7a656e0081525060200191505060405180910390fd5b61160281613e22565b7f2fa1029ea9a56473df3e068ba4dc7f4343efacb8a54b808f595f78d1d62f0035816040518082815260200191505060405180910390a150565b6000600360009054906101000a900473ffffffffffffffffffffffffffffffffffffffff1673ffffffffffffffffffffffffffffffffffffffff163373ffffffffffffffffffffffffffffffffffffffff16141515611729576040517f08c379a00000000000000000000000000000000000000000000000000000000081526004018080602001828103825260368152602001807f6f6e6c79204c6f7374416e64466f756e6420697320616c6c6f77656420746f2081526020017f706572666f726d2074686973206f7065726174696f6e0000000000000000000081525060400191505060405180910390fd5b60055490506000600581905550600360009054906101000a900473ffffffffffffffffffffffffffffffffffffffff1673ffffffffffffffffffffffffffffffffffffffff166108fc829081150290604051600060405180830381858888f1935050505015801561179e573d6000803e3d6000fd5b5050565b600160009054906101000a900473ffffffffffffffffffffffffffffffffffffffff1673ffffffffffffffffffffffffffffffffffffffff163373ffffffffffffffffffffffffffffffffffffffff1614151561188d576040517f08c379a000000000000000000000000000000000000000000000000000000000815260040180806020018281038252602d8152602001807f6f6e6c7920434f4f20697320616c6c6f77656420746f20706572666f726d207481526020017f686973206f7065726174696f6e0000000000000000000000000000000000000081525060400191505060405180910390fd5b600660009054906101000a900460ff16151515611912576040517f08c379a000000000000000000000000000000000000000000000000000000000815260040180806020018281038252601f8152602001807f636f6e7472616374206e6565647320746f206e6f742062652066726f7a656e0081525060200191505060405180910390fd5b61191e81600a54613ecc565b7f4193e3b6c8a874196e0068cb9b96b2aaef71a2d90fc46254c4508e1003996bd5816040518082815260200191505060405180910390a150565b6000809054906101000a900473ffffffffffffffffffffffffffffffffffffffff1673ffffffffffffffffffffffffffffffffffffffff163373ffffffffffffffffffffffffffffffffffffffff16141515611a42576040517f08c379a000000000000000000000000000000000000000000000000000000000815260040180806020018281038252602d8152602001807f6f6e6c792043454f20697320616c6c6f77656420746f20706572666f726d207481526020017f686973206f7065726174696f6e0000000000000000000000000000000000000081525060400191505060405180910390fd5b600073ffffffffffffffffffffffffffffffffffffffff168173ffffffffffffffffffffffffffffffffffffffff1614151515611b0d576040517f08c379a000000000000000000000000000000000000000000000000000000000815260040180806020018281038252602a8152602001807f6e65772043464f20616464726573732063616e6e6f7420626520746865207a6581526020017f726f2d6163636f756e740000000000000000000000000000000000000000000081525060400191505060405180910390fd5b80600260006101000a81548173ffffffffffffffffffffffffffffffffffffffff021916908373ffffffffffffffffffffffffffffffffffffffff16021790555050565b600080600080600080600080600660009054906101000a900460ff16151515611be2576040517f08c379a000000000000000000000000000000000000000000000000000000000815260040180806020018281038252601f8152602001807f636f6e7472616374206e6565647320746f206e6f742062652066726f7a656e0081525060200191505060405180910390fd5b600c60008b815260200190815260200160002097508760000160009054906101000a900467ffffffffffffffff1667ffffffffffffffff169650611c2587613c9b565b1515611cbf576040517f08c379a00000000000000000000000000000000000000000000000000000000081526004018080602001828103825260278152602001807f63616e6e6f742066756c66696c6c206f66666572207468617420646f65736e2781526020017f742065786973740000000000000000000000000000000000000000000000000081525060400191505060405180910390fd5b611cc887613ca7565b1515611d3c576040517f08c379a000000000000000000000000000000000000000000000000000000000815260040180806020018281038252601d8152602001807f63616e6e6f742066756c66696c6c2065787069726564206f666665722100000081525060200191505060405180910390fd5b600d60009054906101000a900473ffffffffffffffffffffffffffffffffffffffff1673ffffffffffffffffffffffffffffffffffffffff16636352211e8b6040518263ffffffff167c010000000000000000000000000000000000000000000000000000000002815260040180828152602001915050602060405180830381600087803b158015611dcd57600080fd5b505af1158015611de1573d6000803e3d6000fd5b505050506040513d6020811015611df757600080fd5b81019080805190602001909291905050509550600160009054906101000a900473ffffffffffffffffffffffffffffffffffffffff1673ffffffffffffffffffffffffffffffffffffffff163373ffffffffffffffffffffffffffffffffffffffff161480611e9157508573ffffffffffffffffffffffffffffffffffffffff163373ffffffffffffffffffffffffffffffffffffffff16145b1515611f2b576040517f08c379a00000000000000000000000000000000000000000000000000000000081526004018080602001828103825260278152602001807f6f6e6c7920434f4f206f7220746865206f776e65722063616e2066756c66696c81526020017f6c206f726465720000000000000000000000000000000000000000000000000081525060400191505060405180910390fd5b8760010160009054906101000a90046fffffffffffffffffffffffffffffffff166fffffffffffffffffffffffffffffffff16945087600001601c9054906101000a900461ffff1661ffff169350611f838585613f52565b9250886fffffffffffffffffffffffffffffffff168310151515612035576040517f08c379a000000000000000000000000000000000000000000000000000000000815260040180806020018281038252602b8152602001807f63616e6e6f7420667566696c6c206f6666657220e28093206f6666657220707281526020017f69636520746f6f206c6f7700000000000000000000000000000000000000000081525060400191505060405180910390fd5b8760000160089054906101000a900473ffffffffffffffffffffffffffffffffffffffff169150600c60008b8152602001908152602001600020600080820160006101000a81549067ffffffffffffffff02191690556000820160086101000a81549073ffffffffffffffffffffffffffffffffffffffff021916905560008201601c6101000a81549061ffff02191690556001820160006101000a8154906fffffffffffffffffffffffffffffffff02191690556001820160106101000a8154906fffffffffffffffffffffffffffffffff02191690555050600d60009054906101000a900473ffffffffffffffffffffffffffffffffffffffff1673ffffffffffffffffffffffffffffffffffffffff166323b872dd87848d6040518463ffffffff167c0100000000000000000000000000000000000000000000000000000000028152600401808473ffffffffffffffffffffffffffffffffffffffff1673ffffffffffffffffffffffffffffffffffffffff1681526020018373ffffffffffffffffffffffffffffffffffffffff1673ffffffffffffffffffffffffffffffffffffffff1681526020018281526020019350505050600060405180830381600087803b15801561220857600080fd5b505af115801561221c573d6000803e3d6000fd5b505050508285039050806004600082825401925050819055506122408a8785613cb3565b7f9accbcf984c4cd67a675ee4d38143974e1fa62aa95da283bd4ca645e408ec2838a83888685604051808681526020018573ffffffffffffffffffffffffffffffffffffffff1673ffffffffffffffffffffffffffffffffffffffff1681526020018473ffffffffffffffffffffffffffffffffffffffff1673ffffffffffffffffffffffffffffffffffffffff1681526020018381526020018281526020019550505050505060405180910390a150505050505050505050565b6000806000600660009054906101000a900460ff16151515612385576040517f08c379a000000000000000000000000000000000000000000000000000000000815260040180806020018281038252601f8152602001807f636f6e7472616374206e6565647320746f206e6f742062652066726f7a656e0081525060200191505060405180910390fd5b600c600085815260200190815260200160002092508260000160009054906101000a900467ffffffffffffffff1667ffffffffffffffff1691506123c882613c9b565b1515612462576040517f08c379a00000000000000000000000000000000000000000000000000000000081526004018080602001828103825260268152602001807f63616e6e6f7420757064617465206f66666572207468617420646f65736e277481526020017f206578697374000000000000000000000000000000000000000000000000000081525060400191505060405180910390fd5b61246b82613ca7565b1515612505576040517f08c379a00000000000000000000000000000000000000000000000000000000081526004018080602001828103825260258152602001807f63616e6e6f7420757064617465206f666665722074686174206861732065787081526020017f697265642100000000000000000000000000000000000000000000000000000081525060400191505060405180910390fd5b8260000160089054906101000a900473ffffffffffffffffffffffffffffffffffffffff1673ffffffffffffffffffffffffffffffffffffffff163373ffffffffffffffffffffffffffffffffffffffff161415156125f2576040517f08c379a00000000000000000000000000000000000000000000000000000000081526004018080602001828103825260228152602001807f63616e6e6f7420616c74657220616e6f746865722062696464657273206f666681526020017f657200000000000000000000000000000000000000000000000000000000000081525060400191505060405180910390fd5b60075442019050600034111561265f57348360010160008282829054906101000a90046fffffffffffffffffffffffffffffffff160192506101000a8154816fffffffffffffffffffffffffffffffff02191690836fffffffffffffffffffffffffffffffff1602179055505b808360000160006101000a81548167ffffffffffffffff021916908367ffffffffffffffff1602179055507f56cb95d5e0f3ba4459f610fef3ba603635cef803d945e97c316cdeb39290399184338334604051808581526020018473ffffffffffffffffffffffffffffffffffffffff1673ffffffffffffffffffffffffffffffffffffffff16815260200183815260200182815260200194505050505060405180910390a150505050565b60045481565b6000809054906101000a900473ffffffffffffffffffffffffffffffffffffffff1673ffffffffffffffffffffffffffffffffffffffff163373ffffffffffffffffffffffffffffffffffffffff161415156127fb576040517f08c379a000000000000000000000000000000000000000000000000000000000815260040180806020018281038252602d8152602001807f6f6e6c792043454f20697320616c6c6f77656420746f20706572666f726d207481526020017f686973206f7065726174696f6e0000000000000000000000000000000000000081525060400191505060405180910390fd5b600660009054906101000a900460ff16151515612880576040517f08c379a000000000000000000000000000000000000000000000000000000000815260040180806020018281038252601f8152602001807f636f6e7472616374206e6565647320746f206e6f742062652066726f7a656e0081525060200191505060405180910390fd5b6001600660006101000a81548160ff021916908315150217905550565b60085481565b60055481565b600160009054906101000a900473ffffffffffffffffffffffffffffffffffffffff1673ffffffffffffffffffffffffffffffffffffffff163373ffffffffffffffffffffffffffffffffffffffff16141515612994576040517f08c379a000000000000000000000000000000000000000000000000000000000815260040180806020018281038252602d8152602001807f6f6e6c7920434f4f20697320616c6c6f77656420746f20706572666f726d207481526020017f686973206f7065726174696f6e0000000000000000000000000000000000000081525060400191505060405180910390fd5b600660009054906101000a900460ff16151515612a19576040517f08c379a000000000000000000000000000000000000000000000000000000000815260040180806020018281038252601f8152602001807f636f6e7472616374206e6565647320746f206e6f742062652066726f7a656e0081525060200191505060405180910390fd5b806007819055507f66be647974b8677ccbdb171c9fd037f0f64af878ddc5b7f0923da6a32173ae47816040518082815260200191505060405180910390a150565b6000600260009054906101000a900473ffffffffffffffffffffffffffffffffffffffff1673ffffffffffffffffffffffffffffffffffffffff163373ffffffffffffffffffffffffffffffffffffffff16141515612b47576040517f08c379a000000000000000000000000000000000000000000000000000000000815260040180806020018281038252602d8152602001807f6f6e6c792043464f20697320616c6c6f77656420746f20706572666f726d207481526020017f686973206f7065726174696f6e0000000000000000000000000000000000000081525060400191505060405180910390fd5b60045490506000600481905550600260009054906101000a900473ffffffffffffffffffffffffffffffffffffffff1673ffffffffffffffffffffffffffffffffffffffff166108fc829081150290604051600060405180830381858888f19350505050158015612bbc573d6000803e3d6000fd5b5050565b600080600080600080600080600080600080600660009054906101000a900460ff16151515612c57576040517f08c379a000000000000000000000000000000000000000000000000000000000815260040180806020018281038252601f8152602001807f636f6e7472616374206e6565647320746f206e6f742062652066726f7a656e0081525060200191505060405180910390fd5b349b506008548c10151515612cfa576040517f08c379a00000000000000000000000000000000000000000000000000000000081526004018080602001828103825260228152602001807f6f6666657220746f74616c2076616c75652069732062656c6f77206d696e696d81526020017f756d00000000000000000000000000000000000000000000000000000000000081525060400191505060405180910390fd5b600b549a50612d09348c613f52565b9950600c60008e815260200190815260200160002098508860000160009054906101000a900467ffffffffffffffff1667ffffffffffffffff16975060009650612d5288613c9b565b15612eb1578860010160009054906101000a90046fffffffffffffffffffffffffffffffff166fffffffffffffffffffffffffffffffff169550612d9588613ca7565b15612e6657612dba868a600001601c9054906101000a900461ffff1661ffff16613f52565b9450612dc585613f70565b9350838a10151515612e65576040517f08c379a00000000000000000000000000000000000000000000000000000000081526004018080602001828103825260398152602001807f6f766572626964207072696365206d757374206d61746368206d696e696d756d81526020017f20707269636520696e6372656d656e742063726974657269610000000000000081525060400191505060405180910390fd5b5b8860010160109054906101000a90046fffffffffffffffffffffffffffffffff166fffffffffffffffffffffffffffffffff1692508286039650826004600082825401925050819055505b600754420191506000871115612ee9578860000160089054906101000a900473ffffffffffffffffffffffffffffffffffffffff1690505b60a0604051908101604052808367ffffffffffffffff1681526020013373ffffffffffffffffffffffffffffffffffffffff1681526020018c61ffff1681526020018d6fffffffffffffffffffffffffffffffff168152602001600a546fffffffffffffffffffffffffffffffff16815250600c60008f815260200190815260200160002060008201518160000160006101000a81548167ffffffffffffffff021916908367ffffffffffffffff16021790555060208201518160000160086101000a81548173ffffffffffffffffffffffffffffffffffffffff021916908373ffffffffffffffffffffffffffffffffffffffff160217905550604082015181600001601c6101000a81548161ffff021916908361ffff16021790555060608201518160010160006101000a8154816fffffffffffffffffffffffffffffffff02191690836fffffffffffffffffffffffffffffffff16021790555060808201518160010160106101000a8154816fffffffffffffffffffffffffffffffff02191690836fffffffffffffffffffffffffffffffff160217905550905050600087111561309d5761309c8d8289613cb3565b5b7f05a7f246d4cdcfed1a85bd6331d1638fa8d47fffd48ede9a22f93d06641f309c8d33848f8e604051808681526020018573ffffffffffffffffffffffffffffffffffffffff1673ffffffffffffffffffffffffffffffffffffffff1681526020018481526020018381526020018281526020019550505050505060405180910390a150505050505050505050505050565b600160009054906101000a900473ffffffffffffffffffffffffffffffffffffffff1681565b600b5481565b600160009054906101000a900473ffffffffffffffffffffffffffffffffffffffff1673ffffffffffffffffffffffffffffffffffffffff163373ffffffffffffffffffffffffffffffffffffffff16141515613246576040517f08c379a000000000000000000000000000000000000000000000000000000000815260040180806020018281038252602d8152602001807f6f6e6c7920434f4f20697320616c6c6f77656420746f20706572666f726d207481526020017f686973206f7065726174696f6e0000000000000000000000000000000000000081525060400191505060405180910390fd5b600660009054906101000a900460ff161515156132cb576040517f08c379a000000000000000000000000000000000000000000000000000000000815260040180806020018281038252601f8152602001807f636f6e7472616374206e6565647320746f206e6f742062652066726f7a656e0081525060200191505060405180910390fd5b80600a819055507ffa4a24dc8c85bb39a38146f43e5611e67c18d4df990b85be0fa17a8d9c7f3cc9816040518082815260200191505060405180910390a150565b600a5481565b600c6020528060005260406000206000915090508060000160009054906101000a900467ffffffffffffffff16908060000160089054906101000a900473ffffffffffffffffffffffffffffffffffffffff169080600001601c9054906101000a900461ffff16908060010160009054906101000a90046fffffffffffffffffffffffffffffffff16908060010160109054906101000a90046fffffffffffffffffffffffffffffffff16905085565b60095481565b600d60009054906101000a900473ffffffffffffffffffffffffffffffffffffffff1681565b6000806000600660009054906101000a900460ff161515613477576040517f08c379a000000000000000000000000000000000000000000000000000000000815260040180806020018281038252601b8152602001807f636f6e7472616374206e6565647320746f2062652066726f7a656e000000000081525060200191505060405180910390fd5b600c600085815260200190815260200160002092508260000160009054906101000a900467ffffffffffffffff1667ffffffffffffffff1691506134ba82613c9b565b1515613554576040517f08c379a00000000000000000000000000000000000000000000000000000000081526004018080602001828103825260258152602001807f6f6666657220646f65736e277420657869737420666f72207375636820746f6b81526020017f656e20696400000000000000000000000000000000000000000000000000000081525060400191505060405180910390fd5b8260000160089054906101000a900473ffffffffffffffffffffffffffffffffffffffff1673ffffffffffffffffffffffffffffffffffffffff163373ffffffffffffffffffffffffffffffffffffffff16141515613641576040517f08c379a000000000000000000000000000000000000000000000000000000000815260040180806020018281038252602f8152602001807f6f6e6c7920626964646572732063616e2077697468647261772074686569722081526020017f66756e647320696e20657363726f77000000000000000000000000000000000081525060400191505060405180910390fd5b8260010160009054906101000a90046fffffffffffffffffffffffffffffffff166fffffffffffffffffffffffffffffffff169050600c6000858152602001908152602001600020600080820160006101000a81549067ffffffffffffffff02191690556000820160086101000a81549073ffffffffffffffffffffffffffffffffffffffff021916905560008201601c6101000a81549061ffff02191690556001820160006101000a8154906fffffffffffffffffffffffffffffffff02191690556001820160106101000a8154906fffffffffffffffffffffffffffffffff021916905550503373ffffffffffffffffffffffffffffffffffffffff166108fc829081150290604051600060405180830381858888f1935050505015801561376f573d6000803e3d6000fd5b507f2014255827f37802573fb6164526f1d41d309fd57001e38c8f169ffb76117098843383604051808481526020018373ffffffffffffffffffffffffffffffffffffffff1673ffffffffffffffffffffffffffffffffffffffff168152602001828152602001935050505060405180910390a150505050565b6000806000806000806000600660009054906101000a900460ff16151515613879576040517f08c379a000000000000000000000000000000000000000000000000000000000815260040180806020018281038252601f8152602001807f636f6e7472616374206e6565647320746f206e6f742062652066726f7a656e0081525060200191505060405180910390fd5b600c600089815260200190815260200160002096508660000160009054906101000a900467ffffffffffffffff1667ffffffffffffffff1695506138bc86613c9b565b1515613956576040517f08c379a00000000000000000000000000000000000000000000000000000000081526004018080602001828103825260268152602001807f63616e6e6f742063616e63656c206f66666572207468617420646f65736e277481526020017f206578697374000000000000000000000000000000000000000000000000000081525060400191505060405180910390fd5b61395f86613ca7565b15156139f9576040517f08c379a00000000000000000000000000000000000000000000000000000000081526004018080602001828103825260248152602001807f63616e6e6f742063616e63656c206f666665722074686174206861732065787081526020017f697265640000000000000000000000000000000000000000000000000000000081525060400191505060405180910390fd5b8660000160089054906101000a900473ffffffffffffffffffffffffffffffffffffffff1694508473ffffffffffffffffffffffffffffffffffffffff163373ffffffffffffffffffffffffffffffffffffffff16141515613ae9576040517f08c379a00000000000000000000000000000000000000000000000000000000081526004018080602001828103825260258152602001807f63616e6e6f742063616e63656c206f66666572206f6620616e6f74686572206281526020017f696464657200000000000000000000000000000000000000000000000000000081525060400191505060405180910390fd5b8660010160009054906101000a90046fffffffffffffffffffffffffffffffff166fffffffffffffffffffffffffffffffff16935086600001601c9054906101000a900461ffff1661ffff169250613b418484613f52565b91508184039050600c6000898152602001908152602001600020600080820160006101000a81549067ffffffffffffffff02191690556000820160086101000a81549073ffffffffffffffffffffffffffffffffffffffff021916905560008201601c6101000a81549061ffff02191690556001820160006101000a8154906fffffffffffffffffffffffffffffffff02191690556001820160106101000a8154906fffffffffffffffffffffffffffffffff0219169055505080600460008282540192505081905550613c16888684613cb3565b7f0f30ae9004015531e44539aa93fcbe6e33146abeeed21661204fa432da6bc07588868484604051808581526020018473ffffffffffffffffffffffffffffffffffffffff1673ffffffffffffffffffffffffffffffffffffffff16815260200183815260200182815260200194505050505060405180910390a15050505050505050565b60008082119050919050565b60008142109050919050565b60008273ffffffffffffffffffffffffffffffffffffffff166108fc839081150290604051600060405180830381858888f193505050509050801515613d725781600554016005819055507f47b2b7bdacd5004b5f20c86ec07ecda11e5ac511d4ad9ed9ed2c5af4c42cb4bd848484604051808481526020018373ffffffffffffffffffffffffffffffffffffffff1673ffffffffffffffffffffffffffffffffffffffff168152602001828152602001935050505060405180910390a15b50505050565b6127108111151515613e18576040517f08c379a00000000000000000000000000000000000000000000000000000000081526004018080602001828103825260228152602001807f696e76616c696420626173697320706f696e747320666f72206f66666572206381526020017f757400000000000000000000000000000000000000000000000000000000000081525060400191505060405180910390fd5b80600b8190555050565b6127108111151515613ec2576040517f08c379a00000000000000000000000000000000000000000000000000000000081526004018080602001828103825260308152602001807f696e76616c696420626173697320706f696e747320666f72206d696e696d756d81526020017f20707269636520696e6372656d656e740000000000000000000000000000000081525060400191505060405180910390fd5b8060098190555050565b806002028210151515613f47576040517f08c379a00000000000000000000000000000000000000000000000000000000081526004018080602001828103825260198152602001807f6d696e696d756d2076616c75652073657420746f6f206c6f770000000000000081525060200191505060405180910390fd5b816008819055505050565b600081612710016127108402811515613f6757fe5b04905092915050565b6000612710600954612710018302811515613f8757fe5b0490509190505600a165627a7a72305820d79b18f25fd5410ac8b9ef0b35c241d0aa7b8467c6068dea5c9a328fe185ede20029",
  "source": "pragma solidity ^0.4.24;\n\nimport \"./ERC721/ERC721Interface.sol\";\nimport \"./OffersBase.sol\";\n\n/// @title Contract that manages funds from creation to fulfillment for offers made on any ERC-721 token.\n/// @author Dapper Labs (https://www.dapperlabs.com)\n/// @notice This generic contract interfaces with any ERC-721 compliant contract\ncontract Offers is OffersBase {\n\n    // This is the main Offers contract. In order to keep our code separated into logical sections,\n    // we've broken it up into multiple files using inheritance. This allows us to keep related code\n    // collocated while still avoiding a single large file, which would be harder to maintain. The breakdown\n    // is as follows:\n    //\n    //      - OffersBase: This contract defines the fundamental code that the main contract uses.\n    //              This includes our main data storage, data types, events, and internal functions for\n    //              managing offers in their lifecycle.\n    //\n    //      - OffersConfig: This contract manages the various configuration values that determine the\n    //              details of the offers that get created, cancelled, overbid, expired, and fulfilled,\n    //              as well as the fee structure that the offers will be operating with.\n    //\n    //      - OffersAccessControl: This contract manages the various addresses and constraints for\n    //              operations that can be executed only by specific roles. The roles are: CEO, CFO,\n    //              COO, and LostAndFound. Additionally, this contract exposes functions for the CFO\n    //              to withdraw earnings and the LostAndFound account to withdraw any lost funds.\n\n    /// @dev The ERC-165 interface signature for ERC-721.\n    ///  Ref: https://github.com/ethereum/EIPs/issues/165\n    ///  Ref: https://github.com/ethereum/EIPs/issues/721\n    bytes4 constant InterfaceSignature_ERC721 = bytes4(0x9a20483d);\n\n    // Reference to contract tracking NFT ownership\n    ERC721 public nonFungibleContract;\n\n    /// @notice Creates the main Offers smart contract instance and sets initial configuration values\n    /// @param _nftAddress The address of the ERC-721 contract managing NFT ownership\n    /// @param _globalDuration The initial globalDuration value to set\n    /// @param _minimumTotalValue The initial minimumTotalValue value to set\n    /// @param _minimumPriceIncrement The initial minimumPriceIncrement value to set\n    /// @param _unsuccessfulFee The initial unsuccessfulFee value to set\n    /// @param _offerCut The initial offerCut value to set\n    constructor(\n      address _nftAddress,\n      uint256 _globalDuration,\n      uint256 _minimumTotalValue,\n      uint256 _minimumPriceIncrement,\n      uint256 _unsuccessfulFee,\n      uint256 _offerCut\n    ) public {\n        // The creator of the contract is the ceo\n        ceoAddress = msg.sender;\n\n        // Get reference of the address of the NFT contract\n        ERC721 candidateContract = ERC721(_nftAddress);\n        require(candidateContract.supportsInterface(InterfaceSignature_ERC721), \"NFT Contract needs to support ERC721 Interface\");\n        nonFungibleContract = candidateContract;\n\n        // Set initial configuration values\n        globalDuration = _globalDuration;\n        unsuccessfulFee = _unsuccessfulFee;\n        _setOfferCut(_offerCut);\n        _setMinimumPriceIncrement(_minimumPriceIncrement);\n        _setMinimumTotalValue(_minimumTotalValue, _unsuccessfulFee);\n    }\n\n    /// @notice Creates an offer on a token. This contract receives bidders funds and refunds the previous bidder\n    ///  if this offer overbids a previously active (unexpired) offer.\n    /// @notice When this offer overbids a previously active offer, this offer must have a price greater than\n    ///  a certain percentage of the previous offer price, which the minimumOverbidPrice basis point specifies.\n    ///  A flat fee is also taken from the previous offer before refund the previous bidder.\n    /// @notice When there is a previous offer that has already expired but not yet been removed from storage,\n    ///  the new offer can be created with any total value as long as it is greater than the minimumTotalValue.\n    /// @notice Works only when contract is not frozen.\n    /// @param _tokenId The token a bidder wants to create an offer for\n    function createOffer(uint256 _tokenId) external payable whenNotFrozen {\n        // T = msg.value\n        uint256 total = msg.value;\n        // Check that the total amount of the offer isn't below the minimum\n        require(total >= minimumTotalValue, \"offer total value is below minimum\");\n\n        uint256 _offerCut = offerCut;\n\n        // P, the price that owner will see and receive if the offer is accepted.\n        uint256 offerPrice = _computeOfferPrice(msg.value, _offerCut);\n\n        Offer storage previousOffer = tokenIdToOffer[_tokenId];\n        uint256 previousExpiresAt = previousOffer.expiresAt;\n\n        uint256 toRefund = 0;\n\n        // Check if tokenId already has an offer\n        if (_offerExists(previousExpiresAt)) {\n            uint256 previousOfferTotal = uint256(previousOffer.total);\n\n            // If the previous offer is still active, the new offer needs to match the previous offer's price\n            // plus a minimum required increment (minimumOverbidPrice).\n            // We calculate the previous offer's price, the corresponding minimumOverbidPrice, and check if the\n            // new offerPrice is greater than or equal to the minimumOverbidPrice\n            if (_isOfferActive(previousExpiresAt)) {\n                uint256 previousPriceForOwner = _computeOfferPrice(previousOfferTotal, uint256(previousOffer.offerCut));\n                uint256 minimumOverbidPrice = _computeMinimumOverbidPrice(previousPriceForOwner);\n                require(offerPrice >= minimumOverbidPrice, \"overbid price must match minimum price increment criteria\");\n            }\n\n            uint256 cfoEarnings = previousOffer.unsuccessfulFee;\n            // Bidder gets refund: T - flat fee\n            toRefund = previousOfferTotal - cfoEarnings;\n\n            totalCFOEarnings += cfoEarnings;\n        }\n\n        uint256 newExpiresAt = now + globalDuration;\n\n        // Get a reference of previous bidder address before overwriting with new offer.\n        // This is only needed if there is refund\n        address previousBidder;\n        if (toRefund > 0) {\n            previousBidder = previousOffer.bidder;\n        }\n\n        tokenIdToOffer[_tokenId] = Offer(\n            uint64(newExpiresAt),\n            msg.sender,\n            uint16(_offerCut),\n            uint128(total),\n            uint128(unsuccessfulFee)\n        );\n\n        // Postpone the refund until the previous offer has been overwritten by the new offer.\n        if (toRefund > 0) {\n            // Finally, sending funds to this bidder. If failed, the fund will be kept in escrow\n            // under lostAndFound's address\n            _tryPushFunds(\n                _tokenId,\n                previousBidder,\n                toRefund\n            );\n        }\n\n        emit OfferCreated(\n            _tokenId,\n            msg.sender,\n            newExpiresAt,\n            total,\n            offerPrice\n        );\n    }\n\n    /// @notice Cancels an offer that must exist and be active currently. This moves funds from this contract\n    ///  back to the the bidder, after a cut has been taken.\n    /// @notice Works only when contract is not frozen.\n    /// @param _tokenId The token specified by the offer a bidder wants to cancel\n    function cancelOffer(uint256 _tokenId) external whenNotFrozen {\n        // Check that offer exists and is active currently\n        Offer storage offer = tokenIdToOffer[_tokenId];\n        uint256 expiresAt = offer.expiresAt;\n        require(_offerExists(expiresAt), \"cannot cancel offer that doesn't exist\");\n        require(_isOfferActive(expiresAt), \"cannot cancel offer that has expired\");\n\n        address bidder = offer.bidder;\n        require(msg.sender == bidder, \"cannot cancel offer of another bidder\");\n\n        // T\n        uint256 total = uint256(offer.total);\n        // S\n        uint256 offerCut = uint256(offer.offerCut);\n        // Bidder gets all of P, CFO gets all of T - P\n        uint256 toRefund = _computeOfferPrice(total, offerCut);\n        uint256 cfoEarnings = total - toRefund;\n\n        // Remove offer from storage\n        delete tokenIdToOffer[_tokenId];\n\n        // Add to CFO's balance\n        totalCFOEarnings += cfoEarnings;\n\n        // Transfer money in escrow back to bidder\n        _tryPushFunds(_tokenId, bidder, toRefund);\n\n        emit OfferCancelled(\n            _tokenId,\n            bidder,\n            toRefund,\n            cfoEarnings\n        );\n    }\n\n    /// @notice Fulfills an offer that must exist and be active currently. This moves the funds of the\n    ///  offer held in escrow in this contract to the owner of the token, and atomically transfers the\n    ///  token from the owner to the bidder. A cut is taken by this contract.\n    /// @notice We also acknowledge the possible difficulties of keeping in-sync with the Ethereum\n    ///  blockchain, and have allowed for fulfilling offers by specifying the _minOfferPrice at which the owner\n    ///  of the token is happy to accept the offer. Thus, the owner will always receive the latest offer\n    ///  price, which can only be at least the _minOfferPrice that was specified. Specifically, this\n    ///  implementation is designed to prevent the edge case where the owner accidentally accepts an offer\n    ///  with a price lower than intended. For example, this can happen when the owner fulfills the offer\n    ///  precisely when the offer expires and is subsequently replaced with a new offer priced lower.\n    /// @notice Works only when contract is not frozen.\n    /// @dev We make sure that the token is not on auction when we fulfill an offer, because the owner of the\n    ///  token would be the auction contract instead of the user. This function requires that this Offers contract\n    ///  is approved for the token in order to make the call to transfer token ownership. This is sufficient\n    ///  because approvals are cleared on transfer (including transfer to the auction).\n    /// @param _tokenId The token specified by the offer that will be fulfilled.\n    /// @param _minOfferPrice The minimum price at which the owner of the token is happy to accept the offer.\n    function fulfillOffer(uint256 _tokenId, uint128 _minOfferPrice) external whenNotFrozen {\n        // Check that offer exists and is active currently\n        Offer storage offer = tokenIdToOffer[_tokenId];\n        uint256 expiresAt = offer.expiresAt;\n        require(_offerExists(expiresAt), \"cannot fulfill offer that doesn't exist\");\n        require(_isOfferActive(expiresAt), \"cannot fulfill expired offer!\");\n\n        // Get the owner of the token\n        address owner = nonFungibleContract.ownerOf(_tokenId);\n\n        require(msg.sender == cooAddress || msg.sender == owner, \"only COO or the owner can fulfill order\");\n\n        // T\n        uint256 total = uint256(offer.total);\n        // S\n        uint256 offerCut = uint256(offer.offerCut);\n        // P\n        uint256 offerPrice = _computeOfferPrice(total, offerCut);\n\n        // Check if the offer price is below the minimum that the owner is happy to accept the offer for\n        require(offerPrice >= _minOfferPrice, \"cannot fufill offer  offer price too low\");\n\n        // Get a reference of the bidder address before removing offer from storage\n        address bidder = offer.bidder;\n\n        // Remove offer from storage\n        delete tokenIdToOffer[_tokenId];\n\n        // Transfer token on behalf of owner to bidder\n        nonFungibleContract.transferFrom(owner, bidder, _tokenId);\n\n        // NFT has been transferred! Now calculate fees and transfer fund to the owner\n        // T - P, the CFO's earnings\n        uint256 cfoEarnings = total - offerPrice;\n        totalCFOEarnings += cfoEarnings;\n\n        // Transfer money in escrow to owner\n        _tryPushFunds(_tokenId, owner, offerPrice);\n\n        emit OfferFulfilled(\n            _tokenId,\n            bidder,\n            owner,\n            offerPrice,\n            cfoEarnings\n        );\n    }\n\n    /// @notice Removes any existing and inactive (expired) offers from storage. In doing so, this contract\n    ///  takes a flat fee from the total amount attached to each offer before sending the remaining funds\n    ///  back to the bidder.\n    /// @notice Nothing will be done if the offer for a token is either non-existent or active.\n    /// @param _tokenIds The array of tokenIds that will be removed from storage\n    function batchRemoveExpired(uint256[] _tokenIds) external whenNotFrozen {\n        uint256 len = _tokenIds.length;\n        for (uint256 i = 0; i < len; i++) {\n            uint256 tokenId = _tokenIds[i];\n            Offer storage offer = tokenIdToOffer[tokenId];\n            uint256 expiresAt = offer.expiresAt;\n\n            // Skip the offer if not exist\n            if (!_offerExists(expiresAt)) {\n                continue;\n            }\n            // Skip if the offer has not expired yet\n            if (_isOfferActive(expiresAt)) {\n                continue;\n            }\n\n            // Get a reference of the bidder address before removing offer from storage\n            address bidder = offer.bidder;\n\n            // CFO gets the flat fee\n            uint256 cfoEarnings = uint256(offer.unsuccessfulFee);\n\n            // Bidder gets refund: T - flat\n            uint256 toRefund = uint256(offer.total) - cfoEarnings;\n\n            // Ensure the previous offer has been removed before refunding\n            delete tokenIdToOffer[tokenId];\n\n            // Add to CFO's balance\n            totalCFOEarnings += cfoEarnings;\n\n            // Finally, sending funds to this bidder. If failed, the fund will be kept in escrow\n            // under lostAndFound's address\n            _tryPushFunds(\n                tokenId,\n                bidder,\n                toRefund\n            );\n\n            emit ExpiredOfferRemoved(\n                tokenId,\n                bidder,\n                toRefund,\n                cfoEarnings\n            );\n        }\n    }\n\n    /// @notice Updates an existing and active offer by setting a new expiration time and, optionally, raise\n    ///  the price of the offer.\n    /// @notice As the offers are always using the configuration values currently in storage, the updated\n    ///  offer may be adhering to configuration values that are different at the time of its original creation.\n    /// @dev We check msg.value to determine if the offer price should be raised. If 0, only a new\n    ///  expiration time is set.\n    /// @param _tokenId The token specified by the offer that will be updated.\n    function updateOffer(uint256 _tokenId) external payable whenNotFrozen {\n        // Check that offer exists and is active currently\n        Offer storage offer = tokenIdToOffer[_tokenId];\n        uint256 expiresAt = uint256(offer.expiresAt);\n        require(_offerExists(expiresAt), \"cannot update offer that doesn't exist\");\n        require(_isOfferActive(expiresAt), \"cannot update offer that has expired!\");\n\n        require(msg.sender == offer.bidder, \"cannot alter another bidders offer\");\n\n        uint256 newExpiresAt = now + globalDuration;\n\n        // Check if the caller wants to raise the offer as well\n        if (msg.value > 0) {\n            // Set the new price\n            offer.total += uint128(msg.value);\n        }\n\n        offer.expiresAt = uint64(newExpiresAt);\n\n        emit OfferUpdated(_tokenId, msg.sender, newExpiresAt, msg.value);\n\n    }\n\n    /// @notice Sends funds of each existing offer held in escrow back to bidders. The function is callable\n    ///  by anyone.\n    /// @notice Works only when contract is frozen. In this case, we want to allow all funds to be returned\n    ///  without taking any fees.\n    /// @param _tokenId The token specified by the offer a bidder wants to withdraw funds for.\n    function bidderWithdrawFunds(uint256 _tokenId) external whenFrozen {\n        // Check that offer exists\n        Offer storage offer = tokenIdToOffer[_tokenId];\n        uint256 expiresAt = offer.expiresAt;\n        require(_offerExists(expiresAt), \"offer doesn't exist for such token id\");\n        require(msg.sender == offer.bidder, \"only bidders can withdraw their funds in escrow\");\n\n        // Get a reference of the total to withdraw before removing offer from storage\n        uint256 total = uint256(offer.total);\n\n        delete tokenIdToOffer[_tokenId];\n\n        // Send funds back to bidders!\n        msg.sender.transfer(total);\n\n        emit BidderWithdrewFundsWhenFrozen(_tokenId, msg.sender, total);\n    }\n\n    /// @notice we don't accept any value transfer.\n    function() external payable {\n        revert(\"we don't accept any payments!\");\n    }\n}\n",
  "sourcePath": "/Users/howard/Documents/programming/dapperlabs/ck-offers-contracts/contracts/Offers.sol",
  "compiler": {
    "name": "solc",
    "version": "0.4.24+commit.e67f0147.Emscripten.clang"
  },
  "schemaVersion": "2.0.1",
  "updatedAt": "2018-11-15T05:53:10.550Z"
}